{
  "transactions": [
    {
      "hash": "0x1002fd8ecc9ec7f5a5d9c085a30c670faf9e2ce481c62c0dd12ab848b0219457",
      "transactionType": "CALL",
      "contractName": null,
      "contractAddress": "0x0349d7175b954c933b387ac9b9a5f08a6888aee7",
      "function": "addPerk(uint256,uint256,address,uint256,uint256)",
      "arguments": [
        "1",
        "1",
        "0x0b2C639c533813f4Aa9D7837CAf62653d097Ff85",
        "100000",
        "100"
      ],
      "transaction": {
        "from": "0x1726cf86da996bc4b2f393e713f6f8ef83f2e4f6",
        "to": "0x0349d7175b954c933b387ac9b9a5f08a6888aee7",
        "gas": "0x20dbd",
        "value": "0x0",
        "input": "0x8aec195b000000000000000000000000000000000000000000000000000000000000000100000000000000000000000000000000000000000000000000000000000000010000000000000000000000000b2c639c533813f4aa9d7837caf62653d097ff8500000000000000000000000000000000000000000000000000000000000186a00000000000000000000000000000000000000000000000000000000000000064",
        "nonce": "0x187",
        "chainId": "0xa"
      },
      "additionalContracts": [],
      "isFixedGasLimit": false
    }
  ],
  "receipts": [
    {
      "status": "0x1",
      "cumulativeGasUsed": "0xa7857c",
      "logs": [
        {
          "address": "0x0349d7175b954c933b387ac9b9a5f08a6888aee7",
          "topics": [
            "0xcf85fab0875b042ddb42912e151806d64fbcfac899c69e7a0f32c04a30454abe",
            "0x0000000000000000000000000000000000000000000000000000000000000001",
            "0x0000000000000000000000000000000000000000000000000000000000000001",
            "0x0000000000000000000000000b2c639c533813f4aa9d7837caf62653d097ff85"
          ],
          "data": "0x00000000000000000000000000000000000000000000000000000000000186a00000000000000000000000000000000000000000000000000000000000000064",
          "blockHash": "0x804b5db1811a4ca9e1c5f67791257733787a598599d8f23102d2a3bd5d9545d0",
          "blockNumber": "0x882e3e9",
          "blockTimestamp": "0x68f9a18b",
          "transactionHash": "0x1002fd8ecc9ec7f5a5d9c085a30c670faf9e2ce481c62c0dd12ab848b0219457",
          "transactionIndex": "0x22",
          "logIndex": "0x85",
          "removed": false
        }
      ],
      "logsBloom": "0x00000000000000000000000000000000000000000000000000000000004000000000100000000000000000000000000000000000020000000000000000040000000000000000000000000000000000002000000010040000000000000010000000000000000000000000000000000000000000000000000000000000000000000000000000000000000000000100000000004000000000000000000000000000000000000000000000000000000000000000000000000000000000000000000000000000000000000000000000000000000000000000000002000000000040000000000000000000000000000000000000000000000000000000000000000000",
      "type": "0x2",
      "transactionHash": "0x1002fd8ecc9ec7f5a5d9c085a30c670faf9e2ce481c62c0dd12ab848b0219457",
      "transactionIndex": "0x22",
      "blockHash": "0x804b5db1811a4ca9e1c5f67791257733787a598599d8f23102d2a3bd5d9545d0",
      "blockNumber": "0x882e3e9",
      "gasUsed": "0x17ca0",
      "effectiveGasPrice": "0x35a",
      "from": "0x1726cf86da996bc4b2f393e713f6f8ef83f2e4f6",
      "to": "0x0349d7175b954c933b387ac9b9a5f08a6888aee7",
      "contractAddress": null,
      "l1BaseFeeScalar": "0x146b",
      "l1BlobBaseFee": "0x1",
      "l1BlobBaseFeeScalar": "0xf79c5",
      "l1Fee": "0x2d9fc068",
      "l1GasPrice": "0x562beed",
      "l1GasUsed": "0x640"
    }
  ],
  "libraries": [],
  "pending": [],
  "returns": {},
  "timestamp": 1761190282,
  "chain": 10,
  "commit": "1abee9d"
}